:100000000C944D000C946C000C946C000C946C00DF
:100010000C946C000C946C000C946C000C946C00B0
:100020000C946C000C946C000C946C000C946C00A0
:100030000C946C000C94AA000C946C000C946C0052
:100040000C946C000C946C000C946C000C946C0080
:100050000C946C000C946C000C946C000C946C0070
:100060000C946C000C946C000C946C000C946C0060
:100070000C946C000C946C000C946C000C946C0050
:100080000C946C000C946C000C946C009D01A40109
:10009000D101E101F1010102150211241FBECFEFD0
:1000A000D0E4DEBFCDBF11E0A0E0B1E0EEE2F8E0C9
:1000B00000E00BBF02C007900D92A032B107D9F744
:1000C00011E0A0E2B1E001C01D92AD32B107E1F74D
:1000D0000E9475020C9415040C940000CF93C82F55
:1000E0008A3019F48DE00E946E009091C00095FF57
:1000F000FCCFC093C60080E090E0CF9108958BE0E4
:10010000809381008DE790E0909389008093880030
:1001100082E080936F00109285001092840080919D
:10012000000190910101A0910201B091030180931F
:10013000200190932101A0932201B09323018FB756
:1001400080688FBF089510928100089581E08093A8
:10015000240108951F920F920FB60F9211240BB62F
:100160000F922F933F934F935F936F937F938F9350
:100170009F93AF93BF93EF93FF9380912001909152
:100180002101A0912201B09123010197A109B10998
:100190008093200190932101A0932201B093230129
:1001A000892B8A2B8B2B91F40E94A6008091000151
:1001B00090910101A0910201B0910301809320016F
:1001C00090932101A0932201B0932301FF91EF911D
:1001D000BF91AF919F918F917F916F915F914F915F
:1001E0003F912F910F900BBE0F900FBE0F901F905D
:1001F0001895609300017093010180930201909320
:100200000301609320017093210180932201909358
:1002100023010895CF92DF92EF92FF926B017C0150
:10022000209125013091260140912701509128010C
:100230000E949C02882309F458C020E030E0A90104
:10024000C701B6010E949C02811106C0E1E9F0E0FD
:1002500080818870808305C0E1E9F0E0808183605F
:10026000808328E539E344E75FE3C701B6010E94D4
:100270009C0288233CF48FEF9FEF9093990080932A
:10028000980027C020E034E244EF56E4C701B601ED
:100290000E94AE0318162CF4109299001092980048
:1002A00018C020E030E040E053E4C701B6010E94EE
:1002B000B2039B01AC0160E074E284EF9AE40E9417
:1002C000A0020E9408036150710970939900609325
:1002D00098001092950010929400C0922501D0923F
:1002E0002601E0922701F0922801FF90EF90DF9025
:1002F000CF90089580E4809390008BE080939100EC
:1003000064EA70ED82E893E40E940A010895109275
:10031000900010929100089580B1809590B190B1B5
:1003200090B1E0912901F0912A01E730F10508F040
:100330007CC0EA5BFF4F0C94930281E090E09093C5
:100340002A018093290175C0982F9770913039F454
:1003500082E090E090932A01809329016AC0923054
:1003600039F483E090E090932A018093290161C0E1
:10037000943039F484E090E090932A01809329012D
:1003800058C0882339F086E090E090932A0180934A
:1003900029014FC081E090E090932A0180932901C8
:1003A00048C0813039F485E090E090932A01809331
:1003B00029013FC081E090E090932A0180932901B8
:1003C00038C0823039F485E090E090932A01809320
:1003D00029012FC081E090E090932A0180932901A8
:1003E00028C0843039F485E090E090932A0180930E
:1003F00029011FC081E090E090932A018093290198
:1004000018C080912B0190912C01892B39F085E047
:1004100090E090932A01809329010BC081E090E045
:1004200090932A018093290104C010922A0110920E
:1004300029018091290190912A018330910529F1A8
:1004400030F48130910559F0029781F0089585309C
:100450009105C9F148F1069709F444C00895109236
:100460002C0110922B010E94870108958EE190E0EB
:1004700090932C0180932B010E947A0164E17AE22F
:1004800083E295E40E940A0108958EE190E0909342
:100490002C0180932B010E947A016FE87AE287E3B6
:1004A00095E40E940A0108958EE190E090932C015A
:1004B00080932B010E947A0164E17AEA8DE495E44D
:1004C0000E940A01089580912B0190912C010097C0
:1004D00031F0019790932C0180932B0108950E9495
:1004E000870108950E948701089511B88FEF82B99E
:1004F00084B915B861E070E080E090E00E94F900F6
:100500000E947F0010922C0110922B0110922A0160
:10051000109229010E948C01809124018823E1F32B
:1005200010922401F7CFEE0FFF1F0024001C0BBE1A
:100530000790F691E02D09949CD008F481E008958D
:100540000CD0D2C0CAD040F0C1D030F021F45F3F0F
:1005500019F0B3C05111FCC0B6C0D7D098F399239D
:10056000C9F35523B1F3951B550BBB27AA27621777
:100570007307840738F09F5F5F4F220F331F441FBC
:10058000AA1FA9F333D00E2E3AF0E0E830D09150F4
:100590005040E695001CCAF729D0FE2F27D0660FE1
:1005A000771F881FBB1F261737074807AB07B0E820
:1005B00009F0BB0B802DBF01FF2793585F4F2AF036
:1005C0009E3F510568F079C0C3C05F3FECF3983E91
:1005D000DCF3869577956795B795F7959F5FC9F793
:1005E000880F911D9695879597F90895E1E0660F1C
:1005F000771F881FBB1F621773078407BA0720F095
:10060000621B730B840BBA0BEE1F88F7E0950895FD
:1006100004D06894B1119CC008957FD088F09F5792
:1006200090F0B92F9927B751A0F0D1F0660F771F3E
:10063000881F991F1AF0BA95C9F712C0B13081F01E
:1006400086D0B1E0089583C0672F782F8827B85FE0
:1006500039F0B93FCCF3869577956795B395D9F77F
:100660003EF490958095709561957F4F8F4F9F4F89
:100670000895990F0008550FAA0BE0E8FEEF161633
:100680001706E807F907C0F012161306E407F50786
:1006900098F0621B730B840B950B39F40A2661F0FA
:1006A000232B242B252B21F408950A2609F4A1409D
:1006B000A6958FEF811D811D089597F99F6780E8AA
:1006C00070E060E008959FEF80EC089500240A94A4
:1006D0001616170618060906089500240A9412161D
:1006E0001306140605060895092E0394000C11F450
:1006F000882352F0BB0F40F4BF2B11F460FF04C0FD
:100700006F5F7F4F8F4F9F4F089557FD9058440F55
:10071000551F59F05F3F71F04795880F97FB991F60
:1007200061F09F3F79F0879508951216130614061D
:10073000551FF2CF4695F1DF08C0161617061806AA
:10074000991FF1CF86957105610508940895E89485
:10075000BB2766277727CB0197F908958ADF08F42E
:100760008FEF08950BD0C0CFB1DF28F0B6DF18F0BF
:10077000952309F0A2CFA7CF1124EACFC6DFA0F3BB
:10078000959FD1F3950F50E0551F629FF001729F26
:10079000BB27F00DB11D639FAA27F00DB11DAA1F45
:1007A000649F6627B00DA11D661F829F2227B00D92
:1007B000A11D621F739FB00DA11D621F839FA00D1D
:1007C000611D221F749F3327A00D611D231F849F6D
:1007D000600D211D822F762F6A2F11249F575040C4
:1007E0008AF0E1F088234AF0EE0FFF1FBB1F661F5F
:1007F000771F881F91505040A9F79E3F510570F018
:100800005CCFA6CF5F3FECF3983EDCF386957795FF
:100810006795B795F795E7959F5FC1F7FE2B880F12
:0E082000911D9695879597F90895F894FFCF4E
:10082E000100000000000002000000006E00000049
:10083E0000001E0014AA4D458F2A3745142A234561
:00000001FF
